{
  "_format": "hh-sol-artifact-1",
  "contractName": "ClawEscrow",
  "sourceName": "contracts/ClawEscrow.sol",
  "abi": [
    {
      "inputs": [
        {
          "internalType": "address",
          "name": "_oracle",
          "type": "address"
        },
        {
          "internalType": "address",
          "name": "_treasury",
          "type": "address"
        }
      ],
      "stateMutability": "nonpayable",
      "type": "constructor"
    },
    {
      "anonymous": false,
      "inputs": [
        {
          "indexed": true,
          "internalType": "string",
          "name": "debateId",
          "type": "string"
        },
        {
          "indexed": true,
          "internalType": "address",
          "name": "bettor",
          "type": "address"
        },
        {
          "indexed": false,
          "internalType": "address",
          "name": "agent",
          "type": "address"
        },
        {
          "indexed": false,
          "internalType": "uint256",
          "name": "amount",
          "type": "uint256"
        }
      ],
      "name": "BetPlaced",
      "type": "event"
    },
    {
      "anonymous": false,
      "inputs": [
        {
          "indexed": true,
          "internalType": "string",
          "name": "debateId",
          "type": "string"
        }
      ],
      "name": "PoolCreated",
      "type": "event"
    },
    {
      "anonymous": false,
      "inputs": [
        {
          "indexed": true,
          "internalType": "string",
          "name": "debateId",
          "type": "string"
        },
        {
          "indexed": false,
          "internalType": "address",
          "name": "winner",
          "type": "address"
        },
        {
          "indexed": false,
          "internalType": "uint256",
          "name": "totalPool",
          "type": "uint256"
        },
        {
          "indexed": false,
          "internalType": "uint256",
          "name": "rake",
          "type": "uint256"
        }
      ],
      "name": "PoolResolved",
      "type": "event"
    },
    {
      "anonymous": false,
      "inputs": [
        {
          "indexed": true,
          "internalType": "string",
          "name": "debateId",
          "type": "string"
        },
        {
          "indexed": true,
          "internalType": "address",
          "name": "bettor",
          "type": "address"
        },
        {
          "indexed": false,
          "internalType": "uint256",
          "name": "payout",
          "type": "uint256"
        }
      ],
      "name": "WinningsClaimed",
      "type": "event"
    },
    {
      "inputs": [
        {
          "internalType": "string",
          "name": "debateId",
          "type": "string"
        },
        {
          "internalType": "uint256",
          "name": "betIndex",
          "type": "uint256"
        }
      ],
      "name": "claimWinnings",
      "outputs": [],
      "stateMutability": "nonpayable",
      "type": "function"
    },
    {
      "inputs": [
        {
          "internalType": "string",
          "name": "debateId",
          "type": "string"
        }
      ],
      "name": "createPool",
      "outputs": [],
      "stateMutability": "nonpayable",
      "type": "function"
    },
    {
      "inputs": [
        {
          "internalType": "string",
          "name": "debateId",
          "type": "string"
        }
      ],
      "name": "getPoolBetCount",
      "outputs": [
        {
          "internalType": "uint256",
          "name": "",
          "type": "uint256"
        }
      ],
      "stateMutability": "view",
      "type": "function"
    },
    {
      "inputs": [],
      "name": "oracle",
      "outputs": [
        {
          "internalType": "address",
          "name": "",
          "type": "address"
        }
      ],
      "stateMutability": "view",
      "type": "function"
    },
    {
      "inputs": [],
      "name": "owner",
      "outputs": [
        {
          "internalType": "address",
          "name": "",
          "type": "address"
        }
      ],
      "stateMutability": "view",
      "type": "function"
    },
    {
      "inputs": [
        {
          "internalType": "string",
          "name": "debateId",
          "type": "string"
        },
        {
          "internalType": "address",
          "name": "agent",
          "type": "address"
        }
      ],
      "name": "placeBet",
      "outputs": [],
      "stateMutability": "payable",
      "type": "function"
    },
    {
      "inputs": [
        {
          "internalType": "uint256",
          "name": "",
          "type": "uint256"
        }
      ],
      "name": "poolIds",
      "outputs": [
        {
          "internalType": "string",
          "name": "",
          "type": "string"
        }
      ],
      "stateMutability": "view",
      "type": "function"
    },
    {
      "inputs": [
        {
          "internalType": "string",
          "name": "",
          "type": "string"
        }
      ],
      "name": "pools",
      "outputs": [
        {
          "internalType": "string",
          "name": "debateId",
          "type": "string"
        },
        {
          "internalType": "bool",
          "name": "exists",
          "type": "bool"
        },
        {
          "internalType": "bool",
          "name": "resolved",
          "type": "bool"
        },
        {
          "internalType": "address",
          "name": "winner",
          "type": "address"
        },
        {
          "internalType": "uint256",
          "name": "totalPool",
          "type": "uint256"
        }
      ],
      "stateMutability": "view",
      "type": "function"
    },
    {
      "inputs": [],
      "name": "rakePercent",
      "outputs": [
        {
          "internalType": "uint256",
          "name": "",
          "type": "uint256"
        }
      ],
      "stateMutability": "view",
      "type": "function"
    },
    {
      "inputs": [
        {
          "internalType": "string",
          "name": "debateId",
          "type": "string"
        },
        {
          "internalType": "address",
          "name": "winnerAgent",
          "type": "address"
        }
      ],
      "name": "resolvePool",
      "outputs": [],
      "stateMutability": "nonpayable",
      "type": "function"
    },
    {
      "inputs": [
        {
          "internalType": "address",
          "name": "_oracle",
          "type": "address"
        }
      ],
      "name": "setOracle",
      "outputs": [],
      "stateMutability": "nonpayable",
      "type": "function"
    },
    {
      "inputs": [
        {
          "internalType": "uint256",
          "name": "_rakePercent",
          "type": "uint256"
        }
      ],
      "name": "setRake",
      "outputs": [],
      "stateMutability": "nonpayable",
      "type": "function"
    },
    {
      "inputs": [],
      "name": "treasury",
      "outputs": [
        {
          "internalType": "address",
          "name": "",
          "type": "address"
        }
      ],
      "stateMutability": "view",
      "type": "function"
    },
    {
      "stateMutability": "payable",
      "type": "receive"
    }
  ],
  "bytecode": "0x6080604052600760025534801561001557600080fd5b506040516113853803806113858339810160408190526100349161008c565b600080546001600160a01b03199081163317909155600180546001600160a01b03948516908316179055600380549290931691161790556100bf565b80516001600160a01b038116811461008757600080fd5b919050565b6000806040838503121561009f57600080fd5b6100a883610070565b91506100b660208401610070565b90509250929050565b6112b7806100ce6000396000f3fe6080604052600436106100c65760003560e01c80637dc0d1d01161007f5780639d6f17a8116100595780639d6f17a81461022c578063c91a5a801461025d578063d0d1303614610270578063f599b0821461029057600080fd5b80637dc0d1d0146101cc5780638a5e369d146101ec5780638da5cb5b1461020c57600080fd5b806336826e9f146100d2578063436254811461010557806357c6a0331461012757806361d027b31461014757806369883b4e1461017f5780637adbf973146101ac57600080fd5b366100cd57005b600080fd5b3480156100de57600080fd5b506100f26100ed366004610ddf565b6102a6565b6040519081526020015b60405180910390f35b34801561011157600080fd5b50610125610120366004610e3d565b6102d6565b005b34801561013357600080fd5b50610125610142366004610e91565b6104d2565b34801561015357600080fd5b50600354610167906001600160a01b031681565b6040516001600160a01b0390911681526020016100fc565b34801561018b57600080fd5b5061019f61019a366004610e91565b610542565b6040516100fc9190610ef0565b3480156101b857600080fd5b506101256101c7366004610f0a565b6105ee565b3480156101d857600080fd5b50600154610167906001600160a01b031681565b3480156101f857600080fd5b50610125610207366004610f25565b61063a565b34801561021857600080fd5b50600054610167906001600160a01b031681565b34801561023857600080fd5b5061024c610247366004610f87565b6108da565b6040516100fc959493929190611038565b61012561026b366004610e3d565b6109ae565b34801561027c57600080fd5b5061012561028b366004610ddf565b610c41565b34801561029c57600080fd5b506100f260025481565b6000600483836040516102ba929190611078565b9081526040519081900360200190206005015490505b92915050565b6001546001600160a01b031633146103235760405162461bcd60e51b815260206004820152600b60248201526a4f6e6c79206f7261636c6560a81b60448201526064015b60405180910390fd5b600060048484604051610337929190611078565b908152604051908190036020019020600181015490915060ff166103935760405162461bcd60e51b8152602060048201526013602482015272141bdbdb08191bd95cc81b9bdd08195e1a5cdd606a1b604482015260640161031a565b6001810154610100900460ff16156103e05760405162461bcd60e51b815260206004820152601060248201526f105b1c9958591e481c995cdbdb1d995960821b604482015260640161031a565b6001810180546001600160a01b0384166201000002610100600160b01b0319909116176101001790556002805490820154600091606491610421919061109e565b61042b91906110b5565b6003546040519192506001600160a01b03169082156108fc029083906000818181858888f19350505050158015610466573d6000803e3d6000fd5b508484604051610477929190611078565b6040805191829003822060028501546001600160a01b03871684526020840152908201839052907f9651c887d18d56fbcb0c8bd9ed06673a3fad1424413dc824efaec38a55461f929060600160405180910390a25050505050565b6000546001600160a01b031633146104fc5760405162461bcd60e51b815260040161031a906110d7565b601481111561053d5760405162461bcd60e51b815260206004820152600d60248201526c0a4c2d6ca40e8dede40d0d2ced609b1b604482015260640161031a565b600255565b6005818154811061055257600080fd5b90600052602060002001600091509050805461056d906110fb565b80601f0160208091040260200160405190810160405280929190818152602001828054610599906110fb565b80156105e65780601f106105bb576101008083540402835291602001916105e6565b820191906000526020600020905b8154815290600101906020018083116105c957829003601f168201915b505050505081565b6000546001600160a01b031633146106185760405162461bcd60e51b815260040161031a906110d7565b600180546001600160a01b0319166001600160a01b0392909216919091179055565b60006004848460405161064e929190611078565b908152604051908190036020019020600181015490915060ff610100909104166106ae5760405162461bcd60e51b8152602060048201526011602482015270141bdbdb081b9bdd081c995cdbdb1d9959607a1b604482015260640161031a565b60008160050183815481106106c5576106c5611135565b6000918252602090912060049091020180549091506001600160a01b031633146107205760405162461bcd60e51b815260206004820152600c60248201526b139bdd081e5bdd5c8818995d60a21b604482015260640161031a565b600381015460ff16156107675760405162461bcd60e51b815260206004820152600f60248201526e105b1c9958591e4818db185a5b5959608a1b604482015260640161031a565b600180830154908201546001600160a01b039081166201000090920416146107c85760405162461bcd60e51b81526020600482015260146024820152732cb7ba903132ba1037b7103a3432903637b9b2b960611b604482015260640161031a565b60038101805460ff1916600117905560028054908301546000916064916107ef919061109e565b6107f991906110b5565b9050600081846002015461080d919061114b565b60018501546201000090046001600160a01b03166000908152600386016020526040812054600286015492935091829061084890859061109e565b61085291906110b5565b604051909150339082156108fc029083906000818181858888f19350505050158015610882573d6000803e3d6000fd5b506040513390610895908b908b90611078565b604051908190038120838252907f7175967b5ddee4d7986318165167133a8c193aa59b05f411ec131d4f124a3f3d9060200160405180910390a3505050505050505050565b8051602081830181018051600482529282019190930120915280548190610900906110fb565b80601f016020809104026020016040519081016040528092919081815260200182805461092c906110fb565b80156109795780601f1061094e57610100808354040283529160200191610979565b820191906000526020600020905b81548152906001019060200180831161095c57829003601f168201915b505050506001830154600290930154919260ff8082169361010083049091169250620100009091046001600160a01b03169085565b6000600484846040516109c2929190611078565b908152604051908190036020019020600181015490915060ff16610a1e5760405162461bcd60e51b8152602060048201526013602482015272141bdbdb08191bd95cc81b9bdd08195e1a5cdd606a1b604482015260640161031a565b6001810154610100900460ff1615610a705760405162461bcd60e51b8152602060048201526015602482015274141bdbdb08185b1c9958591e481c995cdbdb1d9959605a1b604482015260640161031a565b60003411610ab25760405162461bcd60e51b815260206004820152600f60248201526e0426574206d757374206265203e203608c1b604482015260640161031a565b6001600160a01b03821660009081526003820160205260408120549003610b0457600481018054600181018255600091825260209091200180546001600160a01b0319166001600160a01b0384161790555b6001600160a01b038216600090815260038201602052604081208054349290610b2e90849061115e565b9250508190555034816002016000828254610b49919061115e565b909155505060408051608081018252338082526001600160a01b0385811660208085019182523485870190815260006060870181815260058a01805460018082018355918452949092209751600490940290970180546001600160a01b03199081169487169490941781559351908401805490931694169390931790559051600282015591516003909201805460ff1916921515929092179091559051610bf39086908690611078565b604080519182900382206001600160a01b0386168352346020840152917f0ad67edb836fdac9447674f68a3b8f72c35076d01145e6daaf5762e64ad66b5b910160405180910390a350505050565b6000546001600160a01b03163314610c6b5760405162461bcd60e51b815260040161031a906110d7565b60048282604051610c7d929190611078565b9081526040519081900360200190206001015460ff1615610cd65760405162461bcd60e51b8152602060048201526013602482015272506f6f6c20616c72656164792065786973747360681b604482015260640161031a565b600060048383604051610cea929190611078565b908152604051908190036020019020905080610d078385836111c0565b506001818101805460ff1916821790556005805491820181556000527f036b6384b5eca791c62761152d0c79bb0604c104a5fb6f4eb0703f3154bb3db001610d508385836111c0565b508282604051610d61929190611078565b604051908190038120907f24bc0de1fd0a796a980c47cd0fabc0291e89ca7db01ef672b777fac589ed1cbd90600090a2505050565b60008083601f840112610da857600080fd5b50813567ffffffffffffffff811115610dc057600080fd5b602083019150836020828501011115610dd857600080fd5b9250929050565b60008060208385031215610df257600080fd5b823567ffffffffffffffff811115610e0957600080fd5b610e1585828601610d96565b90969095509350505050565b80356001600160a01b0381168114610e3857600080fd5b919050565b600080600060408486031215610e5257600080fd5b833567ffffffffffffffff811115610e6957600080fd5b610e7586828701610d96565b9094509250610e88905060208501610e21565b90509250925092565b600060208284031215610ea357600080fd5b5035919050565b6000815180845260005b81811015610ed057602081850181015186830182015201610eb4565b506000602082860101526020601f19601f83011685010191505092915050565b602081526000610f036020830184610eaa565b9392505050565b600060208284031215610f1c57600080fd5b610f0382610e21565b600080600060408486031215610f3a57600080fd5b833567ffffffffffffffff811115610f5157600080fd5b610f5d86828701610d96565b909790965060209590950135949350505050565b634e487b7160e01b600052604160045260246000fd5b600060208284031215610f9957600080fd5b813567ffffffffffffffff80821115610fb157600080fd5b818401915084601f830112610fc557600080fd5b813581811115610fd757610fd7610f71565b604051601f8201601f19908116603f01168101908382118183101715610fff57610fff610f71565b8160405282815287602084870101111561101857600080fd5b826020860160208301376000928101602001929092525095945050505050565b60a08152600061104b60a0830188610eaa565b95151560208301525092151560408401526001600160a01b03919091166060830152608090910152919050565b8183823760009101908152919050565b634e487b7160e01b600052601160045260246000fd5b80820281158282048414176102d0576102d0611088565b6000826110d257634e487b7160e01b600052601260045260246000fd5b500490565b6020808252600a908201526927b7363c9037bbb732b960b11b604082015260600190565b600181811c9082168061110f57607f821691505b60208210810361112f57634e487b7160e01b600052602260045260246000fd5b50919050565b634e487b7160e01b600052603260045260246000fd5b818103818111156102d0576102d0611088565b808201808211156102d0576102d0611088565b601f8211156111bb57600081815260208120601f850160051c810160208610156111985750805b601f850160051c820191505b818110156111b7578281556001016111a4565b5050505b505050565b67ffffffffffffffff8311156111d8576111d8610f71565b6111ec836111e683546110fb565b83611171565b6000601f84116001811461122057600085156112085750838201355b600019600387901b1c1916600186901b17835561127a565b600083815260209020601f19861690835b828110156112515786850135825560209485019460019092019101611231565b508682101561126e5760001960f88860031b161c19848701351681555b505060018560011b0183555b505050505056fea2646970667358221220a38076b8c7dd599607520957a543aa9247198d55c2240712e25f627affe86b3864736f6c63430008140033",
  "linkReferences": {},
  "deployedLinkReferences": {}
}